{
  "contractName": "FundDistribution",
  "abi": [
    {
      "inputs": [],
      "stateMutability": "nonpayable",
      "type": "constructor"
    },
    {
      "anonymous": false,
      "inputs": [
        {
          "indexed": true,
          "internalType": "uint256",
          "name": "schemeId",
          "type": "uint256"
        },
        {
          "indexed": true,
          "internalType": "address",
          "name": "applicant",
          "type": "address"
        },
        {
          "indexed": false,
          "internalType": "string",
          "name": "ipfsHash",
          "type": "string"
        }
      ],
      "name": "ApplicationCreated",
      "type": "event"
    },
    {
      "anonymous": false,
      "inputs": [
        {
          "indexed": true,
          "internalType": "uint256",
          "name": "schemeId",
          "type": "uint256"
        },
        {
          "indexed": true,
          "internalType": "address",
          "name": "applicant",
          "type": "address"
        }
      ],
      "name": "ApplicationForScheme",
      "type": "event"
    },
    {
      "anonymous": false,
      "inputs": [
        {
          "indexed": true,
          "internalType": "address",
          "name": "beneficiaryAddress",
          "type": "address"
        },
        {
          "indexed": false,
          "internalType": "string",
          "name": "name",
          "type": "string"
        },
        {
          "indexed": false,
          "internalType": "string",
          "name": "scheme",
          "type": "string"
        }
      ],
      "name": "BeneficiaryAdded",
      "type": "event"
    },
    {
      "anonymous": false,
      "inputs": [
        {
          "indexed": true,
          "internalType": "address",
          "name": "beneficiaryAddress",
          "type": "address"
        }
      ],
      "name": "BeneficiaryApproved",
      "type": "event"
    },
    {
      "anonymous": false,
      "inputs": [
        {
          "indexed": true,
          "internalType": "address",
          "name": "depositor",
          "type": "address"
        },
        {
          "indexed": false,
          "internalType": "uint256",
          "name": "amount",
          "type": "uint256"
        }
      ],
      "name": "FundsDeposited",
      "type": "event"
    },
    {
      "anonymous": false,
      "inputs": [
        {
          "indexed": true,
          "internalType": "address",
          "name": "beneficiaryAddress",
          "type": "address"
        },
        {
          "indexed": false,
          "internalType": "uint256",
          "name": "amount",
          "type": "uint256"
        },
        {
          "indexed": false,
          "internalType": "string",
          "name": "scheme",
          "type": "string"
        }
      ],
      "name": "FundsDisbursed",
      "type": "event"
    },
    {
      "anonymous": false,
      "inputs": [
        {
          "indexed": true,
          "internalType": "uint256",
          "name": "id",
          "type": "uint256"
        },
        {
          "indexed": false,
          "internalType": "string",
          "name": "name",
          "type": "string"
        },
        {
          "indexed": false,
          "internalType": "uint256",
          "name": "budget",
          "type": "uint256"
        },
        {
          "indexed": false,
          "internalType": "uint256",
          "name": "deadline",
          "type": "uint256"
        }
      ],
      "name": "SchemeAdded",
      "type": "event"
    },
    {
      "anonymous": false,
      "inputs": [
        {
          "indexed": true,
          "internalType": "uint256",
          "name": "id",
          "type": "uint256"
        },
        {
          "indexed": false,
          "internalType": "string",
          "name": "name",
          "type": "string"
        },
        {
          "indexed": false,
          "internalType": "uint256",
          "name": "budget",
          "type": "uint256"
        }
      ],
      "name": "SchemeCreated",
      "type": "event"
    },
    {
      "inputs": [
        {
          "internalType": "uint256",
          "name": "",
          "type": "uint256"
        },
        {
          "internalType": "uint256",
          "name": "",
          "type": "uint256"
        }
      ],
      "name": "applicationsByScheme",
      "outputs": [
        {
          "internalType": "address",
          "name": "applicant",
          "type": "address"
        },
        {
          "internalType": "uint256",
          "name": "schemeId",
          "type": "uint256"
        },
        {
          "internalType": "string",
          "name": "ipfsHash",
          "type": "string"
        },
        {
          "internalType": "uint256",
          "name": "timestamp",
          "type": "uint256"
        }
      ],
      "stateMutability": "view",
      "type": "function",
      "constant": true
    },
    {
      "inputs": [
        {
          "internalType": "address",
          "name": "",
          "type": "address"
        }
      ],
      "name": "approved",
      "outputs": [
        {
          "internalType": "bool",
          "name": "",
          "type": "bool"
        }
      ],
      "stateMutability": "view",
      "type": "function",
      "constant": true
    },
    {
      "inputs": [
        {
          "internalType": "address",
          "name": "",
          "type": "address"
        }
      ],
      "name": "beneficiaries",
      "outputs": [
        {
          "internalType": "string",
          "name": "name",
          "type": "string"
        },
        {
          "internalType": "uint256",
          "name": "age",
          "type": "uint256"
        },
        {
          "internalType": "uint8",
          "name": "gender",
          "type": "uint8"
        },
        {
          "internalType": "uint256",
          "name": "income",
          "type": "uint256"
        },
        {
          "internalType": "bool",
          "name": "isRegistered",
          "type": "bool"
        },
        {
          "internalType": "uint256",
          "name": "totalReceived",
          "type": "uint256"
        }
      ],
      "stateMutability": "view",
      "type": "function",
      "constant": true
    },
    {
      "inputs": [
        {
          "internalType": "uint256",
          "name": "",
          "type": "uint256"
        }
      ],
      "name": "beneficiaryAddresses",
      "outputs": [
        {
          "internalType": "address",
          "name": "",
          "type": "address"
        }
      ],
      "stateMutability": "view",
      "type": "function",
      "constant": true
    },
    {
      "inputs": [],
      "name": "owner",
      "outputs": [
        {
          "internalType": "address",
          "name": "",
          "type": "address"
        }
      ],
      "stateMutability": "view",
      "type": "function",
      "constant": true
    },
    {
      "inputs": [],
      "name": "schemeCount",
      "outputs": [
        {
          "internalType": "uint256",
          "name": "",
          "type": "uint256"
        }
      ],
      "stateMutability": "view",
      "type": "function",
      "constant": true
    },
    {
      "inputs": [
        {
          "internalType": "uint256",
          "name": "",
          "type": "uint256"
        }
      ],
      "name": "schemes",
      "outputs": [
        {
          "internalType": "uint256",
          "name": "id",
          "type": "uint256"
        },
        {
          "internalType": "string",
          "name": "name",
          "type": "string"
        },
        {
          "internalType": "uint256",
          "name": "budget",
          "type": "uint256"
        },
        {
          "internalType": "uint256",
          "name": "amountPerBeneficiary",
          "type": "uint256"
        },
        {
          "internalType": "uint256",
          "name": "maxIncomeThreshold",
          "type": "uint256"
        },
        {
          "internalType": "uint256",
          "name": "minAge",
          "type": "uint256"
        },
        {
          "internalType": "uint256",
          "name": "maxAge",
          "type": "uint256"
        },
        {
          "internalType": "uint8",
          "name": "genderRequirement",
          "type": "uint8"
        },
        {
          "internalType": "uint256",
          "name": "deadline",
          "type": "uint256"
        },
        {
          "internalType": "bool",
          "name": "isActive",
          "type": "bool"
        }
      ],
      "stateMutability": "view",
      "type": "function",
      "constant": true
    },
    {
      "inputs": [],
      "name": "depositFunds",
      "outputs": [],
      "stateMutability": "payable",
      "type": "function",
      "payable": true
    },
    {
      "inputs": [
        {
          "internalType": "string",
          "name": "_name",
          "type": "string"
        },
        {
          "internalType": "uint256",
          "name": "_budget",
          "type": "uint256"
        },
        {
          "internalType": "uint256",
          "name": "_deadline",
          "type": "uint256"
        }
      ],
      "name": "addScheme",
      "outputs": [],
      "stateMutability": "nonpayable",
      "type": "function"
    },
    {
      "inputs": [
        {
          "internalType": "string",
          "name": "_name",
          "type": "string"
        },
        {
          "internalType": "uint256",
          "name": "_budget",
          "type": "uint256"
        },
        {
          "internalType": "uint256",
          "name": "_amountPerBeneficiary",
          "type": "uint256"
        },
        {
          "internalType": "uint256",
          "name": "_maxIncomeThreshold",
          "type": "uint256"
        },
        {
          "internalType": "uint256",
          "name": "_minAge",
          "type": "uint256"
        },
        {
          "internalType": "uint256",
          "name": "_maxAge",
          "type": "uint256"
        },
        {
          "internalType": "uint8",
          "name": "_genderRequirement",
          "type": "uint8"
        }
      ],
      "name": "createScheme",
      "outputs": [],
      "stateMutability": "nonpayable",
      "type": "function"
    },
    {
      "inputs": [
        {
          "internalType": "uint256",
          "name": "_schemeId",
          "type": "uint256"
        },
        {
          "internalType": "string",
          "name": "_ipfsHash",
          "type": "string"
        }
      ],
      "name": "applyToScheme",
      "outputs": [],
      "stateMutability": "nonpayable",
      "type": "function"
    },
    {
      "inputs": [
        {
          "internalType": "string",
          "name": "_name",
          "type": "string"
        },
        {
          "internalType": "uint256",
          "name": "_age",
          "type": "uint256"
        },
        {
          "internalType": "uint8",
          "name": "_gender",
          "type": "uint8"
        },
        {
          "internalType": "uint256",
          "name": "_income",
          "type": "uint256"
        }
      ],
      "name": "registerProfile",
      "outputs": [],
      "stateMutability": "nonpayable",
      "type": "function"
    },
    {
      "inputs": [
        {
          "internalType": "uint256",
          "name": "_schemeId",
          "type": "uint256"
        }
      ],
      "name": "applyForScheme",
      "outputs": [],
      "stateMutability": "nonpayable",
      "type": "function"
    },
    {
      "inputs": [
        {
          "internalType": "uint256",
          "name": "_schemeId",
          "type": "uint256"
        }
      ],
      "name": "depositToScheme",
      "outputs": [],
      "stateMutability": "payable",
      "type": "function",
      "payable": true
    },
    {
      "inputs": [
        {
          "internalType": "address",
          "name": "_beneficiaryAddress",
          "type": "address"
        },
        {
          "internalType": "string",
          "name": "_name",
          "type": "string"
        },
        {
          "internalType": "string",
          "name": "_scheme",
          "type": "string"
        }
      ],
      "name": "addBeneficiary",
      "outputs": [],
      "stateMutability": "nonpayable",
      "type": "function"
    },
    {
      "inputs": [
        {
          "internalType": "address",
          "name": "_beneficiaryAddress",
          "type": "address"
        }
      ],
      "name": "approveBeneficiary",
      "outputs": [],
      "stateMutability": "nonpayable",
      "type": "function"
    },
    {
      "inputs": [
        {
          "internalType": "address",
          "name": "_beneficiaryAddress",
          "type": "address"
        },
        {
          "internalType": "uint256",
          "name": "amount",
          "type": "uint256"
        }
      ],
      "name": "disburseFunds",
      "outputs": [],
      "stateMutability": "nonpayable",
      "type": "function"
    },
    {
      "inputs": [
        {
          "internalType": "address",
          "name": "_beneficiaryAddress",
          "type": "address"
        }
      ],
      "name": "getBeneficiaryDetails",
      "outputs": [
        {
          "internalType": "string",
          "name": "name",
          "type": "string"
        },
        {
          "internalType": "string",
          "name": "scheme",
          "type": "string"
        },
        {
          "internalType": "bool",
          "name": "isApproved",
          "type": "bool"
        },
        {
          "internalType": "uint256",
          "name": "totalReceived",
          "type": "uint256"
        }
      ],
      "stateMutability": "view",
      "type": "function",
      "constant": true
    },
    {
      "inputs": [
        {
          "internalType": "uint256",
          "name": "_schemeId",
          "type": "uint256"
        }
      ],
      "name": "getScheme",
      "outputs": [
        {
          "internalType": "uint256",
          "name": "id",
          "type": "uint256"
        },
        {
          "internalType": "string",
          "name": "name",
          "type": "string"
        },
        {
          "internalType": "uint256",
          "name": "budget",
          "type": "uint256"
        },
        {
          "internalType": "uint256",
          "name": "deadline",
          "type": "uint256"
        },
        {
          "internalType": "bool",
          "name": "isActive",
          "type": "bool"
        }
      ],
      "stateMutability": "view",
      "type": "function",
      "constant": true
    },
    {
      "inputs": [
        {
          "internalType": "uint256",
          "name": "_schemeId",
          "type": "uint256"
        }
      ],
      "name": "getApplicationsCount",
      "outputs": [
        {
          "internalType": "uint256",
          "name": "",
          "type": "uint256"
        }
      ],
      "stateMutability": "view",
      "type": "function",
      "constant": true
    },
    {
      "inputs": [
        {
          "internalType": "uint256",
          "name": "_schemeId",
          "type": "uint256"
        },
        {
          "internalType": "uint256",
          "name": "_index",
          "type": "uint256"
        }
      ],
      "name": "getApplication",
      "outputs": [
        {
          "internalType": "address",
          "name": "applicant",
          "type": "address"
        },
        {
          "internalType": "string",
          "name": "ipfsHash",
          "type": "string"
        },
        {
          "internalType": "uint256",
          "name": "timestamp",
          "type": "uint256"
        }
      ],
      "stateMutability": "view",
      "type": "function",
      "constant": true
    },
    {
      "inputs": [],
      "name": "getContractBalance",
      "outputs": [
        {
          "internalType": "uint256",
          "name": "",
          "type": "uint256"
        }
      ],
      "stateMutability": "view",
      "type": "function",
      "constant": true
    },
    {
      "inputs": [],
      "name": "getTotalBeneficiaries",
      "outputs": [
        {
          "internalType": "uint256",
          "name": "",
          "type": "uint256"
        }
      ],
      "stateMutability": "view",
      "type": "function",
      "constant": true
    }
  ],
  "bytecode": "0x608060405234801561000f575f80fd5b505f80546001600160a01b031916331790556121e48061002e5f395ff3fe60806040526004361061013c575f3560e01c80638da5cb5b116100b3578063d4c6077b1161006d578063d4c6077b14610394578063d8b964e6146103bf578063d951a70d146103fd578063df1b6bab1461042c578063e2c41dbc1461044b578063e35bb0fc14610453575f80fd5b80638da5cb5b146102db57806390e6b970146102f957806392b6a1b01461030e578063ad48e2a214610321578063bb52085e14610340578063bfd9b27914610375575f80fd5b80634c3d4f1b116101045780634c3d4f1b146102105780635b8002621461023f5780636a2e07521461025d5780636f9fb98a1461027c5780637d30929a1461028e578063832a05b7146102ad575f80fd5b80630156773914610140578063097bb9e01461017a5780632a19cf6b146101b15780633652892b146101d2578063431714c3146101f1575b5f80fd5b34801561014b575f80fd5b5061015f61015a366004611a8e565b610483565b60405161017196959493929190611af1565b60405180910390f35b348015610185575f80fd5b50610199610194366004611b31565b610545565b6040516001600160a01b039091168152602001610171565b3480156101bc575f80fd5b506101d06101cb366004611be5565b61056d565b005b3480156101dd575f80fd5b506101d06101ec366004611c64565b61078a565b3480156101fc575f80fd5b506101d061020b366004611a8e565b6109eb565b34801561021b575f80fd5b5061022f61022a366004611a8e565b610ac7565b6040516101719493929190611cdc565b34801561024a575f80fd5b506003545b604051908152602001610171565b348015610268575f80fd5b506101d0610277366004611d14565b610baf565b348015610287575f80fd5b504761024f565b348015610299575f80fd5b506101d06102a8366004611b31565b610dd4565b3480156102b8575f80fd5b506102cc6102c7366004611d5e565b61106b565b60405161017193929190611d7e565b3480156102e6575f80fd5b505f54610199906001600160a01b031681565b348015610304575f80fd5b5061024f60055481565b6101d061031c366004611b31565b61119d565b34801561032c575f80fd5b506101d061033b366004611db1565b6112a7565b34801561034b575f80fd5b5061035f61035a366004611b31565b611497565b6040516101719a99989796959493929190611dd9565b348015610380575f80fd5b506101d061038f366004611e39565b611573565b34801561039f575f80fd5b5061024f6103ae366004611b31565b5f9081526006602052604090205490565b3480156103ca575f80fd5b506103ed6103d9366004611a8e565b60026020525f908152604090205460ff1681565b6040519015158152602001610171565b348015610408575f80fd5b5061041c610417366004611d5e565b61173b565b6040516101719493929190611e7d565b348015610437575f80fd5b506101d0610446366004611eb4565b611811565b6101d06118be565b34801561045e575f80fd5b5061047261046d366004611b31565b61195e565b604051610171959493929190611f0f565b60016020525f908152604090208054819061049d90611f46565b80601f01602080910402602001604051908101604052809291908181526020018280546104c990611f46565b80156105145780601f106104eb57610100808354040283529160200191610514565b820191905f5260205f20905b8154815290600101906020018083116104f757829003601f168201915b50505060018401546002850154600386015460048701546005909701549596929560ff928316955090935091169086565b60038181548110610554575f80fd5b5f918252602090912001546001600160a01b0316905081565b5f546001600160a01b0316331461059f5760405162461bcd60e51b815260040161059690611f7e565b60405180910390fd5b6001600160a01b0383166105e85760405162461bcd60e51b815260206004820152601060248201526f24b73b30b634b21030b2323932b9b99760811b6044820152606401610596565b6001600160a01b0383165f90815260016020526040902060050154156106505760405162461bcd60e51b815260206004820152601b60248201527f42656e656669636961727920616c7265616479206578697374732e00000000006044820152606401610596565b6040805160c0810182528381525f6020808301829052828401829052606083018290526080830182905260a083018290526001600160a01b03871682526001905291909120815181906106a3908261200e565b50602082015160018083019190915560408084015160028401805460ff90921660ff1992831617905560608501516003808601919091556080860151600486018054911515919093161790915560a090940151600590930192909255825490810183555f929092527fc2575a0e9e593c00f959f8c92f12db2869c3395a3b0502d05e2516446f71f85b90910180546001600160a01b0386166001600160a01b0319909116811790915590517f66acd2c9d3f900fae2a27e58479b35c5baaa9536fa673ee350f88505edb047b39061077d90859085906120ca565b60405180910390a2505050565b5f546001600160a01b031633146107b35760405162461bcd60e51b815260040161059690611f7e565b5f8751116107d35760405162461bcd60e51b8152600401610596906120f7565b5f86116108175760405162461bcd60e51b81526020600482015260126024820152710427564676574206d757374206265203e20360741b6044820152606401610596565b5f851161085b5760405162461bcd60e51b81526020600482015260126024820152710416d6f756e74206d757374206265203e20360741b6044820152606401610596565b8282101561089f5760405162461bcd60e51b81526020600482015260116024820152701059d9481c985b99d9481a5b9d985b1a59607a1b6044820152606401610596565b5f60055460016108af919061211e565b90506040518061014001604052808281526020018981526020018881526020018781526020018681526020018581526020018481526020018360ff1681526020015f1981526020016001151581525060045f8381526020019081526020015f205f820151815f0155602082015181600101908161092c919061200e565b506040828101516002830155606083015160038301556080830151600483015560a083015160058084019190915560c0840151600684015560e084015160078401805460ff90921660ff199283161790556101008501516008850155610120909401516009909301805493151593909416929092179092558290555181907f2ef2b8a87c62fab41cf7b95a61ee386d7043cc3e35a15da54b54538351e78964906109d9908b908b90612143565b60405180910390a25050505050505050565b5f546001600160a01b03163314610a145760405162461bcd60e51b815260040161059690611f7e565b6001600160a01b0381165f9081526002602052604090205460ff1615610a7c5760405162461bcd60e51b815260206004820152601d60248201527f42656e656669636961727920616c726561647920617070726f7665642e0000006044820152606401610596565b6001600160a01b0381165f81815260026020526040808220805460ff19166001179055517fae756b0a5bd1fbe0871906ac484a39752d357561ca291b46f52c068408c39a969190a250565b6001600160a01b0381165f908152600160209081526040808320600290925282205460058201548254606094859490938493919260ff9091169183918391908390610b1190611f46565b80601f0160208091040260200160405190810160405280929190818152602001828054610b3d90611f46565b8015610b885780601f10610b5f57610100808354040283529160200191610b88565b820191905f5260205f20905b815481529060010190602001808311610b6b57829003601f168201915b505060408051602081019091525f8152939e939d50949b5092995090975050505050505050565b5f546001600160a01b03163314610bd85760405162461bcd60e51b815260040161059690611f7e565b5f835111610bf85760405162461bcd60e51b8152600401610596906120f7565b5f8211610c3c5760405162461bcd60e51b81526020600482015260126024820152710427564676574206d757374206265203e20360741b6044820152606401610596565b428111610c8b5760405162461bcd60e51b815260206004820152601a60248201527f446561646c696e65206d75737420626520696e206675747572650000000000006044820152606401610596565b5f6005546001610c9b919061211e565b90506040518061014001604052808281526020018581526020018481526020015f81526020015f81526020015f81526020015f81526020015f60ff1681526020018381526020016001151581525060045f8381526020019081526020015f205f820151815f01556020820151816001019081610d17919061200e565b506040828101516002830155606083015160038301556080830151600483015560a083015160058084019190915560c0840151600684015560e084015160078401805460ff90921660ff199283161790556101008501516008850155610120909401516009909301805493151593909416929092179092558290555181907f630a5a97909fe436a6a37236b6f8e648083f4591ded01b4b65a1565eaa4527e690610dc690879087908790612164565b60405180910390a250505050565b5f818152600460205260409020805482148015610df55750600981015460ff165b610e415760405162461bcd60e51b815260206004820152601c60248201527f536368656d65206e6f7420666f756e64206f7220696e616374697665000000006044820152606401610596565b335f908152600160205260409020600481015460ff16610e9c5760405162461bcd60e51b8152602060048201526016602482015275141c9bd99a5b19481b9bdd081c9959da5cdd195c995960521b6044820152606401610596565b600382015415610efe57816003015482600201541015610efe5760405162461bcd60e51b815260206004820152601a60248201527f496e73756666696369656e7420736368656d65206275646765740000000000006044820152606401610596565b600482015415610f6057816004015481600301541115610f605760405162461bcd60e51b815260206004820152601860248201527f496e636f6d652065786365656473207468726573686f6c6400000000000000006044820152606401610596565b5f82600501541180610f7557505f8260060154115b15610fd9578160050154816001015410158015610f9a57508160060154816001015411155b610fd95760405162461bcd60e51b815260206004820152601060248201526f416765206e6f7420656c696769626c6560801b6044820152606401610596565b600782015460ff161561103a576007820154600282015460ff90811691161461103a5760405162461bcd60e51b815260206004820152601360248201527247656e646572206e6f7420656c696769626c6560681b6044820152606401610596565b604051339084907f33d7ca15268689527c0b96c7a907a31ce8e25ff0eac56ad2decb4f50eb653d3d905f90a3505050565b5f82815260066020526040812054606090829084106110bc5760405162461bcd60e51b815260206004820152600d60248201526c092dcecc2d8d2c840d2dcc8caf609b1b6044820152606401610596565b5f8581526006602052604081208054869081106110db576110db612188565b5f9182526020909120600490910201805460038201546002830180549394506001600160a01b0390921692829061111190611f46565b80601f016020809104026020016040519081016040528092919081815260200182805461113d90611f46565b80156111885780601f1061115f57610100808354040283529160200191611188565b820191905f5260205f20905b81548152906001019060200180831161116b57829003601f168201915b50505050509150935093509350509250925092565b5f546001600160a01b031633146111c65760405162461bcd60e51b815260040161059690611f7e565b5f34116112065760405162461bcd60e51b815260206004820152600e60248201526d26bab9ba1039b2b7321022aa241760911b6044820152606401610596565b5f818152600460205260409020805482146112565760405162461bcd60e51b815260206004820152601060248201526f14d8da195b59481b9bdd08199bdd5b9960821b6044820152606401610596565b34816002015f828254611269919061211e565b909155505060405134815233907f543ba50a5eec5e6178218e364b1d0f396157b3c8fa278522c2cb7fd99407d4749060200160405180910390a25050565b5f546001600160a01b031633146112d05760405162461bcd60e51b815260040161059690611f7e565b6001600160a01b0382165f9081526002602052604090205460ff166113375760405162461bcd60e51b815260206004820152601960248201527f42656e6566696369617279206e6f7420617070726f7665642e000000000000006044820152606401610596565b804710156113875760405162461bcd60e51b815260206004820152601e60248201527f496e73756666696369656e7420636f6e74726163742062616c616e63652e00006044820152606401610596565b5f826001600160a01b0316826040515f6040518083038185875af1925050503d805f81146113d0576040519150601f19603f3d011682016040523d82523d5f602084013e6113d5565b606091505b505090508061141d5760405162461bcd60e51b815260206004820152601460248201527322aa24103a3930b739b332b9103330b4b632b21760611b6044820152606401610596565b6001600160a01b0383165f908152600160205260408120600501805484929061144790849061211e565b92505081905550826001600160a01b03167f2ce2e253945537aa7d973276dc02985c341489198e30fa86a1ccc903e07deed08360405161077d9181526040602082018190525f9082015260600190565b60046020525f9081526040902080546001820180549192916114b890611f46565b80601f01602080910402602001604051908101604052809291908181526020018280546114e490611f46565b801561152f5780601f106115065761010080835404028352916020019161152f565b820191905f5260205f20905b81548152906001019060200180831161151257829003601f168201915b50505060028401546003850154600486015460058701546006880154600789015460088a01546009909a0154989995989497509295509093909260ff92831692168a565b5f8281526004602052604090208054831480156115945750600981015460ff165b6115e05760405162461bcd60e51b815260206004820152601c60248201527f536368656d65206e6f7420666f756e64206f7220696e616374697665000000006044820152606401610596565b80600801544211156116295760405162461bcd60e51b8152602060048201526012602482015271105c1c1b1a58d85d1a5bdb8818db1bdcd95960721b6044820152606401610596565b5f82511161166e5760405162461bcd60e51b815260206004820152601260248201527112541194c81a185cda081c995c5d5a5c995960721b6044820152606401610596565b5f838152600660209081526040808320815160808101835233815280840188815292810187815242606083015282546001808201855593875294909520815160049095020180546001600160a01b0319166001600160a01b03909516949094178455915190830155915160028201906116e7908261200e565b50606082015181600301555050336001600160a01b0316837f5bed6f3428867dfbf9b66698abdcc0fefdb151634690b1b6e56cfb434fa806798460405161172e919061219c565b60405180910390a3505050565b6006602052815f5260405f208181548110611754575f80fd5b5f9182526020909120600490910201805460018201546002830180546001600160a01b0390931695509093509061178a90611f46565b80601f01602080910402602001604051908101604052809291908181526020018280546117b690611f46565b80156118015780601f106117d857610100808354040283529160200191611801565b820191905f5260205f20905b8154815290600101906020018083116117e457829003601f168201915b5050505050908060030154905084565b5f8451116118315760405162461bcd60e51b8152600401610596906120f7565b5f831161186f5760405162461bcd60e51b815260206004820152600c60248201526b1059d9481c995c5d5a5c995960a21b6044820152606401610596565b335f90815260016020526040902080611888868261200e565b5060018082019490945560028101805460ff90941660ff1994851617905560038101919091556004018054909116909117905550565b5f546001600160a01b031633146118e75760405162461bcd60e51b815260040161059690611f7e565b5f34116119275760405162461bcd60e51b815260206004820152600e60248201526d26bab9ba1039b2b7321022aa241760911b6044820152606401610596565b60405134815233907f543ba50a5eec5e6178218e364b1d0f396157b3c8fa278522c2cb7fd99407d4749060200160405180910390a2565b5f818152600460205260408120805460609183918291829187146119b75760405162461bcd60e51b815260206004820152601060248201526f14d8da195b59481b9bdd08199bdd5b9960821b6044820152606401610596565b80546002820154600883015460098401546001850180549093929160ff169084906119e190611f46565b80601f0160208091040260200160405190810160405280929190818152602001828054611a0d90611f46565b8015611a585780601f10611a2f57610100808354040283529160200191611a58565b820191905f5260205f20905b815481529060010190602001808311611a3b57829003601f168201915b50505050509350955095509550955095505091939590929450565b80356001600160a01b0381168114611a89575f80fd5b919050565b5f60208284031215611a9e575f80fd5b611aa782611a73565b9392505050565b5f81518084525f5b81811015611ad257602081850181015186830182015201611ab6565b505f602082860101526020601f19601f83011685010191505092915050565b60c081525f611b0360c0830189611aae565b60208301979097525060ff94909416604085015260608401929092521515608083015260a090910152919050565b5f60208284031215611b41575f80fd5b5035919050565b634e487b7160e01b5f52604160045260245ffd5b5f82601f830112611b6b575f80fd5b813567ffffffffffffffff80821115611b8657611b86611b48565b604051601f8301601f19908116603f01168101908282118183101715611bae57611bae611b48565b81604052838152866020858801011115611bc6575f80fd5b836020870160208301375f602085830101528094505050505092915050565b5f805f60608486031215611bf7575f80fd5b611c0084611a73565b9250602084013567ffffffffffffffff80821115611c1c575f80fd5b611c2887838801611b5c565b93506040860135915080821115611c3d575f80fd5b50611c4a86828701611b5c565b9150509250925092565b803560ff81168114611a89575f80fd5b5f805f805f805f60e0888a031215611c7a575f80fd5b873567ffffffffffffffff811115611c90575f80fd5b611c9c8a828b01611b5c565b9750506020880135955060408801359450606088013593506080880135925060a08801359150611cce60c08901611c54565b905092959891949750929550565b608081525f611cee6080830187611aae565b8281036020840152611d008187611aae565b941515604084015250506060015292915050565b5f805f60608486031215611d26575f80fd5b833567ffffffffffffffff811115611d3c575f80fd5b611d4886828701611b5c565b9660208601359650604090950135949350505050565b5f8060408385031215611d6f575f80fd5b50508035926020909101359150565b6001600160a01b03841681526060602082018190525f90611da190830185611aae565b9050826040830152949350505050565b5f8060408385031215611dc2575f80fd5b611dcb83611a73565b946020939093013593505050565b5f6101408c8352806020840152611df28184018d611aae565b604084019b909b5250506060810197909752608087019590955260a086019390935260c085019190915260ff1660e084015261010083015215156101209091015292915050565b5f8060408385031215611e4a575f80fd5b82359150602083013567ffffffffffffffff811115611e67575f80fd5b611e7385828601611b5c565b9150509250929050565b60018060a01b0385168152836020820152608060408201525f611ea36080830185611aae565b905082606083015295945050505050565b5f805f8060808587031215611ec7575f80fd5b843567ffffffffffffffff811115611edd575f80fd5b611ee987828801611b5c565b94505060208501359250611eff60408601611c54565b9396929550929360600135925050565b85815260a060208201525f611f2760a0830187611aae565b6040830195909552506060810192909252151560809091015292915050565b600181811c90821680611f5a57607f821691505b602082108103611f7857634e487b7160e01b5f52602260045260245ffd5b50919050565b60208082526022908201527f4f6e6c79206f776e65722063616e2063616c6c20746869732066756e6374696f604082015261371760f11b606082015260800190565b601f821115612009575f81815260208120601f850160051c81016020861015611fe65750805b601f850160051c820191505b8181101561200557828155600101611ff2565b5050505b505050565b815167ffffffffffffffff81111561202857612028611b48565b61203c816120368454611f46565b84611fc0565b602080601f83116001811461206f575f84156120585750858301515b5f19600386901b1c1916600185901b178555612005565b5f85815260208120601f198616915b8281101561209d5788860151825594840194600190910190840161207e565b50858210156120ba57878501515f19600388901b60f8161c191681555b5050505050600190811b01905550565b604081525f6120dc6040830185611aae565b82810360208401526120ee8185611aae565b95945050505050565b6020808252600d908201526c13985b59481c995c5d5a5c9959609a1b604082015260600190565b8082018082111561213d57634e487b7160e01b5f52601160045260245ffd5b92915050565b604081525f6121556040830185611aae565b90508260208301529392505050565b606081525f6121766060830186611aae565b60208301949094525060400152919050565b634e487b7160e01b5f52603260045260245ffd5b602081525f611aa76020830184611aae56fea264697066735822122024433598c815cb570c9e81cb6ddd1e84758e01937468e1bbbd94bb93d67a534164736f6c63430008140033",
  "immutableReferences": {},
  "source": "// SPDX-License-Identifier: MIT\npragma solidity ^0.8.20;\n\ncontract FundDistribution {\n    address public owner;\n\n    // --- Scheme & Application Models ---\n    struct Scheme {\n        uint256 id;\n        string name;\n        uint256 budget;\n        uint256 amountPerBeneficiary;\n        uint256 maxIncomeThreshold;\n        uint256 minAge;\n        uint256 maxAge;\n        uint8 genderRequirement;\n        uint256 deadline;\n        bool isActive;\n    }\n    struct Application {\n        address applicant;\n        uint256 schemeId;\n        string ipfsHash;\n        uint256 timestamp;\n    }\n\n    struct Beneficiary {\n        string name;\n        uint256 age;\n        uint8 gender;\n        uint256 income;\n        bool isRegistered;\n        uint256 totalReceived;\n    }\n\n    mapping(address => Beneficiary) public beneficiaries;\n    mapping(address => bool) public approved;\n    address[] public beneficiaryAddresses;\n\n    // Schemes storage\n    mapping(uint256 => Scheme) public schemes;\n    uint256 public schemeCount;\n    // Applications per scheme\n    mapping(uint256 => Application[]) public applicationsByScheme;\n\n    event BeneficiaryAdded(address indexed beneficiaryAddress, string name, string scheme);\n    event BeneficiaryApproved(address indexed beneficiaryAddress);\n    event FundsDisbursed(address indexed beneficiaryAddress, uint256 amount, string scheme);\n    event FundsDeposited(address indexed depositor, uint256 amount);\n    event SchemeAdded(uint256 indexed id, string name, uint256 budget, uint256 deadline);\n    event SchemeCreated(uint256 indexed id, string name, uint256 budget);\n    event ApplicationForScheme(uint256 indexed schemeId, address indexed applicant);\n    event ApplicationCreated(uint256 indexed schemeId, address indexed applicant, string ipfsHash);\n\n    constructor() {\n        owner = msg.sender;\n    }\n\n    modifier onlyOwner() {\n        require(msg.sender == owner, \"Only owner can call this function.\");\n        _;\n    }\n\n    // --- Write Functions ---\n\n    function depositFunds() public payable onlyOwner {\n        require(msg.value > 0, \"Must send ETH.\");\n        emit FundsDeposited(msg.sender, msg.value);\n    }\n\n    // Add a new scheme (admin only)\n    function addScheme(string memory _name, uint256 _budget, uint256 _deadline) public onlyOwner {\n        require(bytes(_name).length > 0, \"Name required\");\n        require(_budget > 0, \"Budget must be > 0\");\n        require(_deadline > block.timestamp, \"Deadline must be in future\");\n        uint256 newId = schemeCount + 1;\n        schemes[newId] = Scheme({\n            id: newId,\n            name: _name,\n            budget: _budget,\n            amountPerBeneficiary: 0,\n            maxIncomeThreshold: 0,\n            minAge: 0,\n            maxAge: 0,\n            genderRequirement: 0,\n            deadline: _deadline,\n            isActive: true\n        });\n        schemeCount = newId;\n        emit SchemeAdded(newId, _name, _budget, _deadline);\n    }\n\n    function createScheme(string memory _name, uint256 _budget, uint256 _amountPerBeneficiary, uint256 _maxIncomeThreshold, uint256 _minAge, uint256 _maxAge, uint8 _genderRequirement) public onlyOwner {\n        require(bytes(_name).length > 0, \"Name required\");\n        require(_budget > 0, \"Budget must be > 0\");\n        require(_amountPerBeneficiary > 0, \"Amount must be > 0\");\n        require(_maxAge >= _minAge, \"Age range invalid\");\n        uint256 newId = schemeCount + 1;\n        schemes[newId] = Scheme({\n            id: newId,\n            name: _name,\n            budget: _budget,\n            amountPerBeneficiary: _amountPerBeneficiary,\n            maxIncomeThreshold: _maxIncomeThreshold,\n            minAge: _minAge,\n            maxAge: _maxAge,\n            genderRequirement: _genderRequirement,\n            deadline: type(uint256).max,\n            isActive: true\n        });\n        schemeCount = newId;\n        emit SchemeCreated(newId, _name, _budget);\n    }\n\n    // Beneficiary applies to a scheme with IPFS hash\n    function applyToScheme(uint256 _schemeId, string memory _ipfsHash) public {\n        Scheme storage s = schemes[_schemeId];\n        require(s.id == _schemeId && s.isActive, \"Scheme not found or inactive\");\n        require(block.timestamp <= s.deadline, \"Application closed\");\n        require(bytes(_ipfsHash).length > 0, \"IPFS hash required\");\n        applicationsByScheme[_schemeId].push(Application({\n            applicant: msg.sender,\n            schemeId: _schemeId,\n            ipfsHash: _ipfsHash,\n            timestamp: block.timestamp\n        }));\n        emit ApplicationCreated(_schemeId, msg.sender, _ipfsHash);\n    }\n\n    function registerProfile(string memory _name, uint256 _age, uint8 _gender, uint256 _income) public {\n        require(bytes(_name).length > 0, \"Name required\");\n        require(_age > 0, \"Age required\");\n        Beneficiary storage b = beneficiaries[msg.sender];\n        b.name = _name;\n        b.age = _age;\n        b.gender = _gender;\n        b.income = _income;\n        b.isRegistered = true;\n    }\n\n    function applyForScheme(uint256 _schemeId) public {\n        Scheme storage s = schemes[_schemeId];\n        require(s.id == _schemeId && s.isActive, \"Scheme not found or inactive\");\n        Beneficiary storage b = beneficiaries[msg.sender];\n        require(b.isRegistered, \"Profile not registered\");\n        if (s.amountPerBeneficiary > 0) {\n            require(s.budget >= s.amountPerBeneficiary, \"Insufficient scheme budget\");\n        }\n        if (s.maxIncomeThreshold > 0) {\n            require(b.income <= s.maxIncomeThreshold, \"Income exceeds threshold\");\n        }\n        if (s.minAge > 0 || s.maxAge > 0) {\n            require(b.age >= s.minAge && b.age <= s.maxAge, \"Age not eligible\");\n        }\n        if (s.genderRequirement != 0) {\n            require(b.gender == s.genderRequirement, \"Gender not eligible\");\n        }\n        emit ApplicationForScheme(_schemeId, msg.sender);\n    }\n\n    function depositToScheme(uint256 _schemeId) public payable onlyOwner {\n        require(msg.value > 0, \"Must send ETH.\");\n        Scheme storage s = schemes[_schemeId];\n        require(s.id == _schemeId, \"Scheme not found\");\n        s.budget += msg.value;\n        emit FundsDeposited(msg.sender, msg.value);\n    }\n\n    function addBeneficiary(address _beneficiaryAddress, string memory _name, string memory _scheme) public onlyOwner {\n        require(_beneficiaryAddress != address(0), \"Invalid address.\");\n        require(beneficiaries[_beneficiaryAddress].totalReceived == 0, \"Beneficiary already exists.\");\n        beneficiaries[_beneficiaryAddress] = Beneficiary(_name, 0, 0, 0, false, 0);\n        beneficiaryAddresses.push(_beneficiaryAddress);\n        emit BeneficiaryAdded(_beneficiaryAddress, _name, _scheme);\n    }\n\n    function approveBeneficiary(address _beneficiaryAddress) public onlyOwner {\n        require(!approved[_beneficiaryAddress], \"Beneficiary already approved.\");\n        approved[_beneficiaryAddress] = true;\n        emit BeneficiaryApproved(_beneficiaryAddress);\n    }\n\n    function disburseFunds(address _beneficiaryAddress, uint256 amount) public onlyOwner {\n        require(approved[_beneficiaryAddress], \"Beneficiary not approved.\");\n        require(address(this).balance >= amount, \"Insufficient contract balance.\");\n\n        (bool success, ) = _beneficiaryAddress.call{value: amount}(\"\");\n        require(success, \"ETH transfer failed.\");\n\n        beneficiaries[_beneficiaryAddress].totalReceived += amount;\n        emit FundsDisbursed(_beneficiaryAddress, amount, \"\");\n    }\n\n    // --- Read Functions ---\n\n    function getBeneficiaryDetails(address _beneficiaryAddress) public view returns (string memory name, string memory scheme, bool isApproved, uint256 totalReceived) {\n        Beneficiary storage b = beneficiaries[_beneficiaryAddress];\n        bool approvedFlag = approved[_beneficiaryAddress];\n        return (b.name, \"\", approvedFlag, b.totalReceived);\n    }\n\n    function getScheme(uint256 _schemeId) public view returns (uint256 id, string memory name, uint256 budget, uint256 deadline, bool isActive) {\n        Scheme storage s = schemes[_schemeId];\n        require(s.id == _schemeId, \"Scheme not found\");\n        return (s.id, s.name, s.budget, s.deadline, s.isActive);\n    }\n\n    function getApplicationsCount(uint256 _schemeId) public view returns (uint256) {\n        return applicationsByScheme[_schemeId].length;\n    }\n\n    function getApplication(uint256 _schemeId, uint256 _index) public view returns (address applicant, string memory ipfsHash, uint256 timestamp) {\n        require(_index < applicationsByScheme[_schemeId].length, \"Invalid index\");\n        Application storage a = applicationsByScheme[_schemeId][_index];\n        return (a.applicant, a.ipfsHash, a.timestamp);\n    }\n\n    function getContractBalance() public view returns (uint256) {\n        return address(this).balance;\n    }\n\n    function getTotalBeneficiaries() public view returns (uint256) {\n        return beneficiaryAddresses.length;\n    }\n}\n",
  "sourcePath": "C:\\Users\\Admin\\Desktop\\Efund-main\\backend\\contracts\\FundDistribution.sol",
  "compiler": {
    "name": "solc",
    "version": "0.8.20+commit.a1b79de6.Emscripten.clang"
  },
  "schemaVersion": "3.4.16",
  "updatedAt": "2026-02-22T20:28:27.801Z",
  "networkType": "ethereum",
  "devdoc": {
    "kind": "dev",
    "methods": {},
    "version": 1
  },
  "userdoc": {
    "kind": "user",
    "methods": {},
    "version": 1
  }
}