{
  "contractName": "FundDistribution",
  "abi": [
    {
      "inputs": [],
      "stateMutability": "nonpayable",
      "type": "constructor"
    },
    {
      "anonymous": false,
      "inputs": [
        {
          "indexed": true,
          "internalType": "address",
          "name": "beneficiaryAddress",
          "type": "address"
        },
        {
          "indexed": false,
          "internalType": "string",
          "name": "name",
          "type": "string"
        },
        {
          "indexed": false,
          "internalType": "string",
          "name": "scheme",
          "type": "string"
        }
      ],
      "name": "BeneficiaryAdded",
      "type": "event"
    },
    {
      "anonymous": false,
      "inputs": [
        {
          "indexed": true,
          "internalType": "address",
          "name": "beneficiaryAddress",
          "type": "address"
        }
      ],
      "name": "BeneficiaryApproved",
      "type": "event"
    },
    {
      "anonymous": false,
      "inputs": [
        {
          "indexed": true,
          "internalType": "address",
          "name": "depositor",
          "type": "address"
        },
        {
          "indexed": false,
          "internalType": "uint256",
          "name": "amount",
          "type": "uint256"
        }
      ],
      "name": "FundsDeposited",
      "type": "event"
    },
    {
      "anonymous": false,
      "inputs": [
        {
          "indexed": true,
          "internalType": "address",
          "name": "beneficiaryAddress",
          "type": "address"
        },
        {
          "indexed": false,
          "internalType": "uint256",
          "name": "amount",
          "type": "uint256"
        },
        {
          "indexed": false,
          "internalType": "string",
          "name": "scheme",
          "type": "string"
        }
      ],
      "name": "FundsDisbursed",
      "type": "event"
    },
    {
      "inputs": [
        {
          "internalType": "address",
          "name": "",
          "type": "address"
        }
      ],
      "name": "beneficiaries",
      "outputs": [
        {
          "internalType": "string",
          "name": "name",
          "type": "string"
        },
        {
          "internalType": "string",
          "name": "scheme",
          "type": "string"
        },
        {
          "internalType": "bool",
          "name": "isApproved",
          "type": "bool"
        },
        {
          "internalType": "uint256",
          "name": "totalReceived",
          "type": "uint256"
        }
      ],
      "stateMutability": "view",
      "type": "function",
      "constant": true
    },
    {
      "inputs": [
        {
          "internalType": "uint256",
          "name": "",
          "type": "uint256"
        }
      ],
      "name": "beneficiaryAddresses",
      "outputs": [
        {
          "internalType": "address",
          "name": "",
          "type": "address"
        }
      ],
      "stateMutability": "view",
      "type": "function",
      "constant": true
    },
    {
      "inputs": [],
      "name": "owner",
      "outputs": [
        {
          "internalType": "address",
          "name": "",
          "type": "address"
        }
      ],
      "stateMutability": "view",
      "type": "function",
      "constant": true
    },
    {
      "inputs": [],
      "name": "depositFunds",
      "outputs": [],
      "stateMutability": "payable",
      "type": "function",
      "payable": true
    },
    {
      "inputs": [
        {
          "internalType": "address",
          "name": "_beneficiaryAddress",
          "type": "address"
        },
        {
          "internalType": "string",
          "name": "_name",
          "type": "string"
        },
        {
          "internalType": "string",
          "name": "_scheme",
          "type": "string"
        }
      ],
      "name": "addBeneficiary",
      "outputs": [],
      "stateMutability": "nonpayable",
      "type": "function"
    },
    {
      "inputs": [
        {
          "internalType": "address",
          "name": "_beneficiaryAddress",
          "type": "address"
        }
      ],
      "name": "approveBeneficiary",
      "outputs": [],
      "stateMutability": "nonpayable",
      "type": "function"
    },
    {
      "inputs": [
        {
          "internalType": "address",
          "name": "_beneficiaryAddress",
          "type": "address"
        },
        {
          "internalType": "uint256",
          "name": "amount",
          "type": "uint256"
        }
      ],
      "name": "disburseFunds",
      "outputs": [],
      "stateMutability": "nonpayable",
      "type": "function"
    },
    {
      "inputs": [
        {
          "internalType": "address",
          "name": "_beneficiaryAddress",
          "type": "address"
        }
      ],
      "name": "getBeneficiaryDetails",
      "outputs": [
        {
          "internalType": "string",
          "name": "name",
          "type": "string"
        },
        {
          "internalType": "string",
          "name": "scheme",
          "type": "string"
        },
        {
          "internalType": "bool",
          "name": "isApproved",
          "type": "bool"
        },
        {
          "internalType": "uint256",
          "name": "totalReceived",
          "type": "uint256"
        }
      ],
      "stateMutability": "view",
      "type": "function",
      "constant": true
    },
    {
      "inputs": [],
      "name": "getContractBalance",
      "outputs": [
        {
          "internalType": "uint256",
          "name": "",
          "type": "uint256"
        }
      ],
      "stateMutability": "view",
      "type": "function",
      "constant": true
    },
    {
      "inputs": [],
      "name": "getTotalBeneficiaries",
      "outputs": [
        {
          "internalType": "uint256",
          "name": "",
          "type": "uint256"
        }
      ],
      "stateMutability": "view",
      "type": "function",
      "constant": true
    }
  ],
  "bytecode": "0x608060405234801561000f575f80fd5b50335f806101000a81548173ffffffffffffffffffffffffffffffffffffffff021916908373ffffffffffffffffffffffffffffffffffffffff160217905550611abf8061005c5f395ff3fe608060405260043610610090575f3560e01c80635b800262116100585780635b8002621461019e5780636f9fb98a146101c85780638da5cb5b146101f2578063ad48e2a21461021c578063e2c41dbc1461024457610090565b80630156773914610094578063097bb9e0146100d35780632a19cf6b1461010f578063431714c3146101375780634c3d4f1b1461015f575b5f80fd5b34801561009f575f80fd5b506100ba60048036038101906100b59190610eef565b61024e565b6040516100ca9493929190610fd6565b60405180910390f35b3480156100de575f80fd5b506100f960048036038101906100f49190611051565b610392565b604051610106919061108b565b60405180910390f35b34801561011a575f80fd5b50610135600480360381019061013091906111d0565b6103cd565b005b348015610142575f80fd5b5061015d60048036038101906101589190610eef565b6106b5565b005b34801561016a575f80fd5b5061018560048036038101906101809190610eef565b6108bb565b6040516101959493929190610fd6565b60405180910390f35b3480156101a9575f80fd5b506101b2610a41565b6040516101bf9190611258565b60405180910390f35b3480156101d3575f80fd5b506101dc610a4d565b6040516101e99190611258565b60405180910390f35b3480156101fd575f80fd5b50610206610a54565b604051610213919061108b565b60405180910390f35b348015610227575f80fd5b50610242600480360381019061023d9190611271565b610a77565b005b61024c610d65565b005b6001602052805f5260405f205f91509050805f01805461026d906112dc565b80601f0160208091040260200160405190810160405280929190818152602001828054610299906112dc565b80156102e45780601f106102bb576101008083540402835291602001916102e4565b820191905f5260205f20905b8154815290600101906020018083116102c757829003601f168201915b5050505050908060010180546102f9906112dc565b80601f0160208091040260200160405190810160405280929190818152602001828054610325906112dc565b80156103705780601f1061034757610100808354040283529160200191610370565b820191905f5260205f20905b81548152906001019060200180831161035357829003601f168201915b505050505090806002015f9054906101000a900460ff16908060030154905084565b600281815481106103a1575f80fd5b905f5260205f20015f915054906101000a900473ffffffffffffffffffffffffffffffffffffffff1681565b5f8054906101000a900473ffffffffffffffffffffffffffffffffffffffff1673ffffffffffffffffffffffffffffffffffffffff163373ffffffffffffffffffffffffffffffffffffffff161461045a576040517f08c379a00000000000000000000000000000000000000000000000000000000081526004016104519061137c565b60405180910390fd5b5f73ffffffffffffffffffffffffffffffffffffffff168373ffffffffffffffffffffffffffffffffffffffff16036104c8576040517f08c379a00000000000000000000000000000000000000000000000000000000081526004016104bf906113e4565b60405180910390fd5b5f60015f8573ffffffffffffffffffffffffffffffffffffffff1673ffffffffffffffffffffffffffffffffffffffff1681526020019081526020015f20600301541461054a576040517f08c379a00000000000000000000000000000000000000000000000000000000081526004016105419061144c565b60405180910390fd5b60405180608001604052808381526020018281526020015f151581526020015f81525060015f8573ffffffffffffffffffffffffffffffffffffffff1673ffffffffffffffffffffffffffffffffffffffff1681526020019081526020015f205f820151815f0190816105bd9190611607565b5060208201518160010190816105d39190611607565b506040820151816002015f6101000a81548160ff02191690831515021790555060608201518160030155905050600283908060018154018082558091505060019003905f5260205f20015f9091909190916101000a81548173ffffffffffffffffffffffffffffffffffffffff021916908373ffffffffffffffffffffffffffffffffffffffff1602179055508273ffffffffffffffffffffffffffffffffffffffff167f66acd2c9d3f900fae2a27e58479b35c5baaa9536fa673ee350f88505edb047b383836040516106a89291906116d6565b60405180910390a2505050565b5f8054906101000a900473ffffffffffffffffffffffffffffffffffffffff1673ffffffffffffffffffffffffffffffffffffffff163373ffffffffffffffffffffffffffffffffffffffff1614610742576040517f08c379a00000000000000000000000000000000000000000000000000000000081526004016107399061137c565b60405180910390fd5b5f60015f8373ffffffffffffffffffffffffffffffffffffffff1673ffffffffffffffffffffffffffffffffffffffff1681526020019081526020015f206003015411806107df57505f151560015f8373ffffffffffffffffffffffffffffffffffffffff1673ffffffffffffffffffffffffffffffffffffffff1681526020019081526020015f206002015f9054906101000a900460ff161515145b61081e576040517f08c379a00000000000000000000000000000000000000000000000000000000081526004016108159061177b565b60405180910390fd5b6001805f8373ffffffffffffffffffffffffffffffffffffffff1673ffffffffffffffffffffffffffffffffffffffff1681526020019081526020015f206002015f6101000a81548160ff0219169083151502179055508073ffffffffffffffffffffffffffffffffffffffff167fae756b0a5bd1fbe0871906ac484a39752d357561ca291b46f52c068408c39a9660405160405180910390a250565b6060805f805f60015f8773ffffffffffffffffffffffffffffffffffffffff1673ffffffffffffffffffffffffffffffffffffffff1681526020019081526020015f209050805f0181600101826002015f9054906101000a900460ff168360030154838054610929906112dc565b80601f0160208091040260200160405190810160405280929190818152602001828054610955906112dc565b80156109a05780601f10610977576101008083540402835291602001916109a0565b820191905f5260205f20905b81548152906001019060200180831161098357829003601f168201915b505050505093508280546109b3906112dc565b80601f01602080910402602001604051908101604052809291908181526020018280546109df906112dc565b8015610a2a5780601f10610a0157610100808354040283529160200191610a2a565b820191905f5260205f20905b815481529060010190602001808311610a0d57829003601f168201915b505050505092509450945094509450509193509193565b5f600280549050905090565b5f47905090565b5f8054906101000a900473ffffffffffffffffffffffffffffffffffffffff1681565b5f8054906101000a900473ffffffffffffffffffffffffffffffffffffffff1673ffffffffffffffffffffffffffffffffffffffff163373ffffffffffffffffffffffffffffffffffffffff1614610b04576040517f08c379a0000000000000000000000000000000000000000000000000000000008152600401610afb9061137c565b60405180910390fd5b60015f8373ffffffffffffffffffffffffffffffffffffffff1673ffffffffffffffffffffffffffffffffffffffff1681526020019081526020015f206002015f9054906101000a900460ff16610b90576040517f08c379a0000000000000000000000000000000000000000000000000000000008152600401610b87906117e3565b60405180910390fd5b80471015610bd3576040517f08c379a0000000000000000000000000000000000000000000000000000000008152600401610bca9061184b565b60405180910390fd5b5f8273ffffffffffffffffffffffffffffffffffffffff1682604051610bf890611896565b5f6040518083038185875af1925050503d805f8114610c32576040519150601f19603f3d011682016040523d82523d5f602084013e610c37565b606091505b5050905080610c7b576040517f08c379a0000000000000000000000000000000000000000000000000000000008152600401610c72906118f4565b60405180910390fd5b8160015f8573ffffffffffffffffffffffffffffffffffffffff1673ffffffffffffffffffffffffffffffffffffffff1681526020019081526020015f206003015f828254610cca919061193f565b925050819055508273ffffffffffffffffffffffffffffffffffffffff167f2ce2e253945537aa7d973276dc02985c341489198e30fa86a1ccc903e07deed08360015f8773ffffffffffffffffffffffffffffffffffffffff1673ffffffffffffffffffffffffffffffffffffffff1681526020019081526020015f20600101604051610d589291906119f3565b60405180910390a2505050565b5f8054906101000a900473ffffffffffffffffffffffffffffffffffffffff1673ffffffffffffffffffffffffffffffffffffffff163373ffffffffffffffffffffffffffffffffffffffff1614610df2576040517f08c379a0000000000000000000000000000000000000000000000000000000008152600401610de99061137c565b60405180910390fd5b5f3411610e34576040517f08c379a0000000000000000000000000000000000000000000000000000000008152600401610e2b90611a6b565b60405180910390fd5b3373ffffffffffffffffffffffffffffffffffffffff167f543ba50a5eec5e6178218e364b1d0f396157b3c8fa278522c2cb7fd99407d47434604051610e7a9190611258565b60405180910390a2565b5f604051905090565b5f80fd5b5f80fd5b5f73ffffffffffffffffffffffffffffffffffffffff82169050919050565b5f610ebe82610e95565b9050919050565b610ece81610eb4565b8114610ed8575f80fd5b50565b5f81359050610ee981610ec5565b92915050565b5f60208284031215610f0457610f03610e8d565b5b5f610f1184828501610edb565b91505092915050565b5f81519050919050565b5f82825260208201905092915050565b5f5b83811015610f51578082015181840152602081019050610f36565b5f8484015250505050565b5f601f19601f8301169050919050565b5f610f7682610f1a565b610f808185610f24565b9350610f90818560208601610f34565b610f9981610f5c565b840191505092915050565b5f8115159050919050565b610fb881610fa4565b82525050565b5f819050919050565b610fd081610fbe565b82525050565b5f6080820190508181035f830152610fee8187610f6c565b905081810360208301526110028186610f6c565b90506110116040830185610faf565b61101e6060830184610fc7565b95945050505050565b61103081610fbe565b811461103a575f80fd5b50565b5f8135905061104b81611027565b92915050565b5f6020828403121561106657611065610e8d565b5b5f6110738482850161103d565b91505092915050565b61108581610eb4565b82525050565b5f60208201905061109e5f83018461107c565b92915050565b5f80fd5b5f80fd5b7f4e487b71000000000000000000000000000000000000000000000000000000005f52604160045260245ffd5b6110e282610f5c565b810181811067ffffffffffffffff82111715611101576111006110ac565b5b80604052505050565b5f611113610e84565b905061111f82826110d9565b919050565b5f67ffffffffffffffff82111561113e5761113d6110ac565b5b61114782610f5c565b9050602081019050919050565b828183375f83830152505050565b5f61117461116f84611124565b61110a565b9050828152602081018484840111156111905761118f6110a8565b5b61119b848285611154565b509392505050565b5f82601f8301126111b7576111b66110a4565b5b81356111c7848260208601611162565b91505092915050565b5f805f606084860312156111e7576111e6610e8d565b5b5f6111f486828701610edb565b935050602084013567ffffffffffffffff81111561121557611214610e91565b5b611221868287016111a3565b925050604084013567ffffffffffffffff81111561124257611241610e91565b5b61124e868287016111a3565b9150509250925092565b5f60208201905061126b5f830184610fc7565b92915050565b5f806040838503121561128757611286610e8d565b5b5f61129485828601610edb565b92505060206112a58582860161103d565b9150509250929050565b7f4e487b71000000000000000000000000000000000000000000000000000000005f52602260045260245ffd5b5f60028204905060018216806112f357607f821691505b602082108103611306576113056112af565b5b50919050565b7f4f6e6c79206f776e65722063616e2063616c6c20746869732066756e6374696f5f8201527f6e2e000000000000000000000000000000000000000000000000000000000000602082015250565b5f611366602283610f24565b91506113718261130c565b604082019050919050565b5f6020820190508181035f8301526113938161135a565b9050919050565b7f496e76616c696420616464726573732e000000000000000000000000000000005f82015250565b5f6113ce601083610f24565b91506113d98261139a565b602082019050919050565b5f6020820190508181035f8301526113fb816113c2565b9050919050565b7f42656e656669636961727920616c7265616479206578697374732e00000000005f82015250565b5f611436601b83610f24565b915061144182611402565b602082019050919050565b5f6020820190508181035f8301526114638161142a565b9050919050565b5f819050815f5260205f209050919050565b5f6020601f8301049050919050565b5f82821b905092915050565b5f600883026114c67fffffffffffffffffffffffffffffffffffffffffffffffffffffffffffffffff8261148b565b6114d0868361148b565b95508019841693508086168417925050509392505050565b5f819050919050565b5f61150b61150661150184610fbe565b6114e8565b610fbe565b9050919050565b5f819050919050565b611524836114f1565b61153861153082611512565b848454611497565b825550505050565b5f90565b61154c611540565b61155781848461151b565b505050565b5b8181101561157a5761156f5f82611544565b60018101905061155d565b5050565b601f8211156115bf576115908161146a565b6115998461147c565b810160208510156115a8578190505b6115bc6115b48561147c565b83018261155c565b50505b505050565b5f82821c905092915050565b5f6115df5f19846008026115c4565b1980831691505092915050565b5f6115f783836115d0565b9150826002028217905092915050565b61161082610f1a565b67ffffffffffffffff811115611629576116286110ac565b5b61163382546112dc565b61163e82828561157e565b5f60209050601f83116001811461166f575f841561165d578287015190505b61166785826115ec565b8655506116ce565b601f19841661167d8661146a565b5f5b828110156116a45784890151825560018201915060208501945060208101905061167f565b868310156116c157848901516116bd601f8916826115d0565b8355505b6001600288020188555050505b505050505050565b5f6040820190508181035f8301526116ee8185610f6c565b905081810360208301526117028184610f6c565b90509392505050565b7f42656e6566696369617279206e6f7420666f756e64206f7220616c72656164795f8201527f20617070726f7665642e00000000000000000000000000000000000000000000602082015250565b5f611765602a83610f24565b91506117708261170b565b604082019050919050565b5f6020820190508181035f83015261179281611759565b9050919050565b7f42656e6566696369617279206e6f7420617070726f7665642e000000000000005f82015250565b5f6117cd601983610f24565b91506117d882611799565b602082019050919050565b5f6020820190508181035f8301526117fa816117c1565b9050919050565b7f496e73756666696369656e7420636f6e74726163742062616c616e63652e00005f82015250565b5f611835601e83610f24565b915061184082611801565b602082019050919050565b5f6020820190508181035f83015261186281611829565b9050919050565b5f81905092915050565b50565b5f6118815f83611869565b915061188c82611873565b5f82019050919050565b5f6118a082611876565b9150819050919050565b7f455448207472616e73666572206661696c65642e0000000000000000000000005f82015250565b5f6118de601483610f24565b91506118e9826118aa565b602082019050919050565b5f6020820190508181035f83015261190b816118d2565b9050919050565b7f4e487b71000000000000000000000000000000000000000000000000000000005f52601160045260245ffd5b5f61194982610fbe565b915061195483610fbe565b925082820190508082111561196c5761196b611912565b5b92915050565b5f815461197e816112dc565b6119888186610f24565b9450600182165f81146119a257600181146119b8576119ea565b60ff1983168652811515602002860193506119ea565b6119c18561146a565b5f5b838110156119e2578154818901526001820191506020810190506119c3565b808801955050505b50505092915050565b5f604082019050611a065f830185610fc7565b8181036020830152611a188184611972565b90509392505050565b7f4d7573742073656e64204554482e0000000000000000000000000000000000005f82015250565b5f611a55600e83610f24565b9150611a6082611a21565b602082019050919050565b5f6020820190508181035f830152611a8281611a49565b905091905056fea26469706673582212206e25f2a381bd0300a2a4e1d787a5f9fe5cb0c056aa4600140450a949550d330a64736f6c63430008140033",
  "immutableReferences": {},
  "source": "// SPDX-License-Identifier: MIT\r\npragma solidity ^0.8.20;\r\n\r\ncontract FundDistribution {\r\n    address public owner;\r\n\r\n    struct Beneficiary {\r\n        string name;\r\n        string scheme;\r\n        bool isApproved;\r\n        uint256 totalReceived;\r\n    }\r\n\r\n    mapping(address => Beneficiary) public beneficiaries;\r\n    address[] public beneficiaryAddresses;\r\n\r\n    event BeneficiaryAdded(address indexed beneficiaryAddress, string name, string scheme);\r\n    event BeneficiaryApproved(address indexed beneficiaryAddress);\r\n    event FundsDisbursed(address indexed beneficiaryAddress, uint256 amount, string scheme);\r\n    event FundsDeposited(address indexed depositor, uint256 amount);\r\n\r\n    constructor() {\r\n        owner = msg.sender;\r\n    }\r\n\r\n    modifier onlyOwner() {\r\n        require(msg.sender == owner, \"Only owner can call this function.\");\r\n        _;\r\n    }\r\n\r\n    // --- Write Functions ---\r\n\r\n    function depositFunds() public payable onlyOwner {\r\n        require(msg.value > 0, \"Must send ETH.\");\r\n        emit FundsDeposited(msg.sender, msg.value);\r\n    }\r\n\r\n    function addBeneficiary(address _beneficiaryAddress, string memory _name, string memory _scheme) public onlyOwner {\r\n        require(_beneficiaryAddress != address(0), \"Invalid address.\");\r\n        require(beneficiaries[_beneficiaryAddress].totalReceived == 0, \"Beneficiary already exists.\");\r\n\r\n        beneficiaries[_beneficiaryAddress] = Beneficiary(_name, _scheme, false, 0);\r\n        beneficiaryAddresses.push(_beneficiaryAddress);\r\n        emit BeneficiaryAdded(_beneficiaryAddress, _name, _scheme);\r\n    }\r\n\r\n    function approveBeneficiary(address _beneficiaryAddress) public onlyOwner {\r\n        require(beneficiaries[_beneficiaryAddress].totalReceived > 0 || beneficiaries[_beneficiaryAddress].isApproved == false, \"Beneficiary not found or already approved.\");\r\n        \r\n        beneficiaries[_beneficiaryAddress].isApproved = true;\r\n        emit BeneficiaryApproved(_beneficiaryAddress);\r\n    }\r\n\r\n    function disburseFunds(address _beneficiaryAddress, uint256 amount) public onlyOwner {\r\n        require(beneficiaries[_beneficiaryAddress].isApproved, \"Beneficiary not approved.\");\r\n        require(address(this).balance >= amount, \"Insufficient contract balance.\");\r\n\r\n        (bool success, ) = _beneficiaryAddress.call{value: amount}(\"\");\r\n        require(success, \"ETH transfer failed.\");\r\n\r\n        beneficiaries[_beneficiaryAddress].totalReceived += amount;\r\n        emit FundsDisbursed(_beneficiaryAddress, amount, beneficiaries[_beneficiaryAddress].scheme);\r\n    }\r\n\r\n    // --- Read Functions ---\r\n\r\n    function getBeneficiaryDetails(address _beneficiaryAddress) public view returns (string memory name, string memory scheme, bool isApproved, uint256 totalReceived) {\r\n        Beneficiary storage b = beneficiaries[_beneficiaryAddress];\r\n        return (b.name, b.scheme, b.isApproved, b.totalReceived);\r\n    }\r\n\r\n    function getContractBalance() public view returns (uint256) {\r\n        return address(this).balance;\r\n    }\r\n\r\n    function getTotalBeneficiaries() public view returns (uint256) {\r\n        return beneficiaryAddresses.length;\r\n    }\r\n}",
  "sourcePath": "C:\\Users\\Admin\\Desktop\\Project\\backend\\contracts\\FundDistribution.sol",
  "compiler": {
    "name": "solc",
    "version": "0.8.20+commit.a1b79de6.Emscripten.clang"
  },
  "schemaVersion": "3.4.16",
  "updatedAt": "2026-02-04T19:54:50.878Z",
  "networkType": "ethereum",
  "devdoc": {
    "kind": "dev",
    "methods": {},
    "version": 1
  },
  "userdoc": {
    "kind": "user",
    "methods": {},
    "version": 1
  }
}